:1000000027C034C033C032C031C030C0A2C02EC0FF
:100010002DC02CC02BC02AC029C028C027C026C094
:1000200025C024C023C0003B380032040401010471
:10003000040404040202020202020202010102029A
:100040000104081020400102040810204080040030
:1000500011241FBECFEDCDBF20E0A0E6B0E001C06F
:100060001D92AD37B207E1F7BED090C1C9CF3FB7FF
:10007000F8948091650090916600A0916700B0911E
:10008000680022B708B601FE05C02F3F19F001969F
:10009000A11DB11D3FBFBA2FA92F982F8827BC01E2
:1000A000CD01620F711D811D911D43E0660F771F09
:1000B000881F991F4A95D1F70895CF92DF92EF924A
:1000C000FF92CF93DF936B017C01D1DFEB01CFDF98
:1000D0006C1B7D0B683E7340D0F381E0C81AD108D9
:1000E000E108F108C851DC4FC114D104E104F10466
:1000F00071F7DF91CF91FF90EF90DF90CF9008954F
:10010000C79AC79BFECF00C000C00000C59800C0C2
:1001100000C0C798C59A779905C083E080936900AD
:1001200080E0089581E008958EB98BE200C000C0A0
:1001300000008DB9B79BFECF00C000C08DB9769B83
:10014000F5CF00C000C000008FB19FEF9FB9BD9AEE
:1001500008951F920F920FB60F9211242F933F9381
:100160008F939F93AF93BF938091610090916200B2
:10017000A0916300B09164003091600026E0230FED
:100180002D3768F129E8230F0396A11DB11D209397
:1001900060008093610090936200A0936300B0932D
:1001A00064008091650090916600A0916700B09115
:1001B00068000196A11DB11D8093650090936600B3
:1001C000A0936700B0936800BF91AF919F918F910A
:1001D0003F912F910F900FBE0F901F901895029690
:1001E000A11DB11DD4CF789480B7836080BF83B741
:1001F000877F83BF83B7887F826083BF89B7826030
:1002000089BF8EB5887F8EBD8FB58C7F81608FBD95
:100210008EB5877E8EBD8EB5887F82608EBDC59A75
:10022000C79ABF9ABD9A8FEF8FB98AE28DB980EFD6
:100230008EB983E4E82E80E0F82E91E3C92E90E099
:10024000D92E22EA422E11E033E9932E43E0842E88
:1002500077247A9454E0652E62E0562EF70184915B
:10026000F6019491992361F0E92FF0E0EA5DFF4FE8
:10027000E491F0E09FB7F8942081822B80839FBFA8
:1002800040926A0010937C0090926B00809269000B
:1002900037DF8823E1F002E0CAE6D0E05E01FFEF3D
:1002A000AF1ABF0A80916900837009F45FC0C798D4
:1002B00088818FB980EF38DFBD988EEF35DF909160
:1002C000690080FF27C090FF22C010936900109240
:1002D0007C0068EC70E080E090E0EFDEF701849154
:1002E000F6019491992369F0E92FF0E0EA5DFF4F60
:1002F000E491F0E09FB7F894208180958223808379
:100300009FBF68EE73E080E090E0D7DEA7CF509209
:100310006900DDCF892F8570843071F480916A0087
:10032000816080936A0010936900EADE81112AC01F
:100330008AE080936900CBCF9E7F90936900802FE5
:10034000E50101E0813009F0A9CF10927C00C59849
:10035000C79AB79BFECF00C000C0C59A00C000C0BE
:1003600000007599B6CF60926900B3CFBD9880EF59
:10037000DBDE8883013021F47FB88EEFD5DEDFCF5E
:100380001FB8FBCF82E0CAE6D0E0DBCFF894FFCF06
:00000001FF
